:020000040800F2
:1000000060B10120D5020008591F0008111F000827
:10001000551F0008FD1A00085528000800000000C0
:10002000000000000000000000000000B9230008EC
:10003000011B0008000000002D220008D124000848
:10004000EF020008EF020008EF020008EF020008CC
:10005000EF020008EF020008EF020008EF020008BC
:10006000EF020008EF020008EF020008EF020008AC
:10007000EF020008EF020008EF020008EF0200089C
:10008000EF020008EF020008EF020008EF0200088C
:10009000EF020008EF020008EF020008EF0200087C
:1000A000EF020008EF020008EF020008EF0200086C
:1000B000EF020008EF020008EF020008EF0200085C
:1000C000EF020008EF020008EF020008EF0200084C
:1000D000EF0200083D250008EF020008592500083E
:1000E000EF020008EF020008EF020008EF0200082C
:1000F000EF020008EF020008EF020008EF0200081C
:10010000EF020008EF020008EF020008EF0200080B
:10011000EF020008EF020008EF020008EF020008FB
:10012000EF020008EF020008EF020008EF020008EB
:10013000EF020008EF020008EF020008EF020008DB
:10014000EF020008EF020008EF020008EF020008CB
:10015000EF020008EF020008EF020008EF020008BB
:10016000EF020008EF020008EF020008EF020008AB
:10017000EF020008EF020008EF020008EF0200089B
:10018000EF020008EF02000800F002F800F092F819
:100190000AA090E8000C82448344AAF10107DA45E2
:1001A00001D100F087F8AFF2090EBAE80F0013F0A2
:1001B000010F18BFFB1A43F001031847B8320000C3
:1001C000D8320000103A24BF78C878C1FAD8520754
:1001D00024BF30C830C144BF04680C6070470000C1
:1001E0000023002400250026103A28BF78C1FBD840
:1001F000520728BF30C148BF0B6070476E2900F01E
:100200003D83702900F08784662902F0B287652952
:1002100002F0AF87672902F0AC876129AFF3008055
:1002200003681B0A28BF41F08001692900F08C8017
:10023000642900F08980752900F086806F2900F01C
:100240001484782900F05384E92900F0AF83E4296D
:1002500000F0AC83F52900F0A983EF2900F01184A8
:10026000F82900F052840368DB0928BF41F08001BF
:10027000632900F0E086732900F0E586E32900F0A9
:10028000F086F32900F0F586002070471FB502F0D4
:100290006BFF00F03FFF04000020002102F04EFF42
:1002A000401C60600020002102F032FFE0601FBDB2
:1002B00010B510BD00F001FF1146FFF7E7FF02F097
:1002C000AFFE00F0DDFF03B4FFF7F2FF03BC01F067
:1002D00025F800000948804709480047FEE7FEE787
:1002E000FEE7FEE7FEE7FEE7FEE7FEE7FEE7FEE7E6
:1002F00004480549054A064B70470000D52400080C
:100300008901000860AB012060B1012060AD0120CF
:1003100060AD01207CB51D4616460C00009001D052
:100320002044401E074B7B442A46694601903046D4
:1003300000F0BDFA05461CB10020694600F0CAFA7B
:1003400028467CBDB50500002DE9F0410646002495
:1003500010687529314616A510D000F0FBF9002869
:1003600002DA404213A507E031688A0701D512A5D9
:1003700002E0490704D511A5012401E000F0F3F9DA
:1003800000210A2206F1240709E0B0FBF2FCB0FBD1
:10039000F2F302FB1C00303078541846491C002848
:1003A000F3D123462A463046BDE8F04100F00DBAAD
:1003B000000000002D0000002B00000020000000C5
:1003C0002DE9F05F894604464FF0000ADFF874B16A
:1003D000FB44C0F820A02046E1688847002874D07C
:1003E000252806D0D4E901219047206A401C2062CC
:1003F000F1E700265F462046E16888472028054649
:1004000007DB312D05D2781910F8200C08B106430E
:10041000F1E7B00701D526F00406C4F81CA00027B8
:10042000C4F818A02A2D09D0284602F01AFB38B3C8
:1004300004EB8708303DC8F8185019E059F8041B40
:10044000204604EB87029161E1688847012F054649
:1004500018D1E069002820DA26F020061DE0D8F83F
:10046000180000EB800005EB40003038C8F8180099
:100470002046E1688847054602F0F3FA0028EED1ED
:10048000012F0AD02E2D08D12046E16888477F1C15
:100490000546022F46F02006C4DBA069002803DAD7
:1004A000404246F00106A061F00701D026F0100698
:1004B0006C2D0BD0682D09D04C2D39D06A2D35D03C
:1004C000742D35D07A2D33D016E038E0E1682F4610
:1004D00020468847B842054609D16C2F26D04FF4F4
:1004E0008060E168064320468847054604E06C2F9B
:1004F0001AD04FF4807006430DB3A5F141001928BE
:1005000002D8203546F400664A4629462046266031
:100510004E46FFF773FE80B101280BD0F61D26F082
:10052000070000F1080956E74020E4E78020D8E7FB
:100530000020D6E706F104094DE7284652E7206A75
:10054000BDE8F09F582F000030B505460B462A46FF
:1005500013F8014B12F8010B08B1A042F8D01CB1FE
:10056000002802D06D1CF1E7284630BD10B5431CB1
:1005700002E010F8011B71B18107FAD14FF001328E
:1005800002C88C1A8C4314EAC211F9D0C01A0A06A8
:1005900003D0C01E10BDC01A10BD0A0401D0801EB9
:1005A00010BD0902FCD0401E10BD40EA010370B529
:1005B0009B072ED14FF00136042A2AD308C810C950
:1005C0009D1B9D43121F15EAC61517D0D8B2E1B284
:1005D000401A50EA056110D198B2A1B2401A50EA0F
:1005E00005410AD123F07F4024F07F41401A50EAB0
:1005F000052102D1180EA0EB146070BDA342DBD020
:1006000018BA21BA884201D9012070BD4FF0FF30DD
:1006100070BD0AB9002070BD10F8013B11F8014B04
:1006200063B1A3420AD1521E08D010F8013B11F861
:10063000014B1BB1A34201D1521EEDD1181B70BD5D
:10064000421E12F8013F002BFBD111F8013B002B99
:1006500002F8013BF9D1704710B5203AC0F00B8089
:10066000B1E81850203AA0E81850B1E81850A0E8B6
:100670001850BFF4F5AF5FEA027C24BFB1E8185010
:10068000A0E8185044BF18C918C0BDE810405FEA80
:10069000827C24BF51F8043B40F8043B08BF7047FC
:1006A000D20728BF31F8023B48BF11F8012B28BF01
:1006B00020F8023B48BF00F8012B70474FF00002C2
:1006C0000429C0F0128010F0030C00F03182CCF14C
:1006D000040CBCF1020F18BF00F8012BA8BF20F8D2
:1006E000022BA1EB0C0100F023BA5FEAC17C24BF0E
:1006F00000F8012B00F8012B48BF00F8012B7047D0
:1007000070477047704770B5044685690068C10638
:1007100001D5302600E02026C00707D070BDD4E9FF
:10072000012130469047206A401C20626D1EF6D59C
:1007300070BD70B5044685690078C00707D170BDEB
:10074000D4E9012120209047206A401C20626D1EC0
:10075000F6D570BD09684A0501D540B27047C90594
:10076000FCD500B2704709684A0501D5C0B2704790
:10077000C905FCD580B2704770B50C460546012A04
:1007800005D02878800600D5EA69002302E001231D
:1007900005E05B1C934202D2E05C0028F9D1A86915
:1007A000E618C01AA861286A184428622846FFF78C
:1007B000AAFF04E0D5E9012114F8010B9047B442E7
:1007C000F8D32846FFF7B5FF70BD2DE9F0470D4679
:1007D00099469246044600F124080168880604D52B
:1007E000E06921F01001216000E00120A84201DD54
:1007F000471B00E00027A1697A1902EB0900081ADB
:10080000A0612078C00602D42046FFF77CFF0026B6
:1008100008E0D4E901211AF806009047206A401C3C
:10082000761C20624E45F4DB2078C0060AD52046AF
:10083000FFF769FF06E0D4E9012130209047206AE4
:10084000401C2062381EA7F10107F4DC07E0D4E960
:10085000012118F805009047206A401C2062281EDC
:10086000A5F10105F3DC2046FFF763FF20780006C1
:1008700002D50220BDE8F0870120FBE7116802687D
:10088000006A530501D508700AE0D30501D5088038
:1008900006E0130603D5C217C1E9000200E00860B4
:1008A0000120704701694A1C02610878704700B551
:1008B0008FB0CDE901310021059105497944CDE999
:1008C000031011466846FFF77BFD0FB000BD000026
:1008D000E5FFFFFF0A6802F8010B0A607047D1E9E3
:1008E00000239A4202D2531C0B6010707047000024
:1008F0002DE9FF5F15468A460446DFF8AC80F844D0
:100900000027D8E900103E46CDE9001010E03AF883
:1009100016106A4602A800F0B0FB411C07D02178EF
:10092000890603D5E269391891420DD80744761C2F
:100930002078800602D5E069B84205DDAE42E6DBEC
:100940003AF816000028E2D1A069C01BA061204639
:10095000FFF7D9FED8E90010CDE90010002017E01C
:100960003AF818106A4602A800F087FBB0F1FF3F82
:1009700081460BD000250DF1080B05E0D4E90121DB
:100980001BF8050090476D1C4D45F7D308F1010099
:10099000B0428046E4DB206A384420622046FFF7FC
:1009A000C8FEBDE8FF9F00003E2A00002DE9F0418F
:1009B0008046D21D22F007020025D2E90002F52967
:1009C00015A614D0011E72F1000106DA0023D0EB47
:1009D000030063EB020211A608E0D8F800108B07B1
:1009E00001D50FA602E0490701D50EA60125114643
:1009F000002408F1240704E000F0BFF830323A5533
:100A0000641C50EA0102F7D12B463246214640468B
:100A1000BDE8F041FFF7D9BE000000002D00000046
:100A20002B0000002000000030B4002100F124045D
:100A300008E002F00705D208303542EA4372DB08CD
:100A40006554491C52EA0305F3D10468002310A23F
:100A5000250707D5A40600D421B1C46901230DA23E
:100A6000641EC46130BCFFF7B0BE10B50446214619
:100A70001068FFF778FE02462046BDE810400023CC
:100A8000D2E7D21D22F00701D1E90023CCE7000014
:100A90000000000030000000F0B40D460188090598
:100AA00002D5214C7C4402E01F4C7C440E340021D2
:100AB00000F1240608E002F00F071209E75D42EAA0
:100AC00003721B097754491C52EA0307F3D10278D9
:100AD0000023120704D5702D06D009B1022311346A
:100AE0002246F0BCFFF771BE01231034F8E770B561
:100AF00004460D4621461068FFF735FE024629469A
:100B00002046BDE870400023C6E7D21D22F007034F
:100B1000D3E90023C0E70368126843F020030360B1
:100B20000823C3610023B7E7A02800004FF00002AC
:100B300000B5134694469646203922BFA0E80C50D3
:100B4000A0E80C50B1F12001BFF4F7AF090728BFAE
:100B5000A0E80C5048BF0CC05DF804EB890028BF2A
:100B600040F8042B08BF704748BF20F8022B11F053
:100B7000804F18BF00F8012B704730B5B0F10A0262
:100B80004FEA900E71F100034EEA817EB0EB0E0049
:100B900061EB91014FEA101E4EEA017E10EB0E0050
:100BA00041EB11114FEA102E4EEA016E10EB0E00D0
:100BB00041EB11214FEA104E4EEA014E10EB0E00B0
:100BC00041EB1141401841F100014FEAD00040EAE9
:100BD00041704FEAD10110EB80054FEA810444EAED
:100BE000907444EB01046D1944EB0404521BA341BF
:100BF0004FF0000348BF0A3200D530BD401C41F120
:100C0000000130BD70472DE9FF4F0C461E464FF0E6
:100C1000FF378BB0D2E90001DDF860800A908A4688
:100C2000C1F30A5505B93D46002108464FF00000C2
:100C3000BAF1000F00F4400005DA00EB80004FF439
:100C4000400101EA50004FEA9059B9F1010F00DD6F
:100C5000B9460A9850EA4A000ED044F61050A5F260
:100C6000FF3545432F14B8F1000F1ED07542291EE1
:100C70001EDDC9F100021CE0B8F1010F4FF00000C9
:100C800001D0302103E0F24305E02154401CB04282
:100C9000FBDB30460022002121540B99C1F808806B
:100CA000C1E900200FB0BDE8F08FBD1B6D1CDEE771
:100CB0004A4600DA694206A800F070FA06AB93E8EB
:100CC000070003AB83E8070050460A9900F02DFBAC
:100CD0008DE80700A0F500501F3800900398002D04
:100CE0000ADD42F21F014A460844002303A903908B
:100CF000684600F096FD09E0A0F500504A461F380E
:100D0000002303A90390684600F0A0FD8DE80700CA
:100D10000004000C03D04FF0FF30410800E0104603
:100D2000B8F1000F03D00022009215461EE0751E98
:100D300005D4FFF722FF303262556D1EF9D5B34658
:100D40000122084302D000227F1C04E020783028D2
:100D500001D100227F1E002A099784D01DE0112DA9
:100D600007DAFFF70AFF303262556D1C50EA0102C4
:100D7000F5D1084302D00098C8B10EE00021681EEA
:100D800005E0235C625C63542254401E491C81428E
:100D9000F7DBAB46A81B401E0990002004F80B00AF
:100DA0000B98099AC0F80880C0E9002B7AE7112651
:100DB0004FF0000857E72DE9F04F88460446D21D52
:100DC00022F0070191B0D1E90001CDE90A0101F05B
:100DD00030FE02460B98C00F01D02D2007E020689E
:100DE000810701D52B2002E0202101EAC000032A5F
:100DF000099001D0072A05DB03464146204600F052
:100E00008DF90BE12078800601D5E06900E006202D
:100E1000B8F1650F814606D0B8F1660F18D0B8F169
:100E2000670F70D131E00020B9F1110F009001DBA4
:100E3000112301E009F101030AAA01A90CA8FFF797
:100E4000E2FEDDE90C70002609F10105834647E06A
:100E500001204B4600904FF000470AAA01A90CA8B8
:100E6000FFF7D1FEDDE90DB00C995D46002610B903
:100E700009F101000D18B9EB050003D4C0F1FF36EC
:100E800009F10105A5EB09002BE0B9F1010F01DA29
:100E90004FF001090020B9F1110F0090484601DD23
:100EA000112300E003460AAA01A90CA8FFF7ABFE34
:100EB000DDE90C704D4600268346207800070AD4F1
:100EC000AB4500DA5D4601A8012D04DD411911F89A
:100ED000011C302907D04F4502DA17F1040F04DA5C
:100EE000012082460FE06D1EEEE7002F02DCED1BB5
:100EF0003E4403E0781CA84200DD7D1CB81B00F1D5
:100F0000010A4FF000472078000703D4AA4501DB0F
:100F10004FF0FF3A0021B7F1004F0DF143088DF873
:100F2000431024D002202B23002F01DA7F422D23EF
:100F30000A21021EA0F1010000DC5FB197FBF1FC69
:100F400097FBF1F201FB1C7C17460CF1300C08F802
:100F500001CDEEE7A8F1010003702188090501D554
:100F6000452100E06521A0F1010800F8011C099865
:100F70000FA9A1EB0807FF1D00B10120411901EBEA
:100F8000EA70A1693844081A401EA0612078C006A2
:100F900002D42046FFF7B7FB099828B1D4E9012114
:100FA0009047206A401C20622078C00622D5204647
:100FB000FFF7A9FB1EE0002E04DBB34502DD01A80C
:100FC000805D00E03020D4E901219047206A401C78
:100FD0002062761CAAF101005FEA000A0AD100F043
:100FE00099F8C0680168405CD4E901219047206A03
:100FF000401C2062281EA5F10105DCDC07E0D4E9D5
:10100000012118F8010B9047206A401C2062381E0D
:10101000A7F10107F3DC2046FFF78BFB032011B09B
:1010200041E610B5436913B1AFF3008001E0FFF76B
:10103000A3FB012010BD127800F124010A700022E8
:101040004A700122EDE711684FF0FF32E9E710B571
:10105000436913B1AFF3008001E0FFF749FC0120C1
:1010600010BD128800F1240182840022C284012272
:10107000EDE711684FF0FF32E9E770B516460C4610
:10108000054600F03FF8036893F80101012806D0F7
:10109000FF2C0FD8185D68B101202C7070BDD3F8FB
:1010A00007013246214603F2071303442846BDE8F0
:1010B000704018474FF0FF3070BD754600F0EAF8F9
:1010C000AE4605006946534620F00700854618B035
:1010D00020B5FFF70DF9BDE820404FF000064FF0B6
:1010E00000074FF000084FF0000B21F00701AC465D
:1010F000ACE8C009ACE8C009ACE8C009ACE8C0097C
:101100008D46704710B500F005F8001D10BD00BFFA
:101110002D2000000048704720AB01202DE9F04150
:101120001F46044603260168072A01F4006004DB19
:1011300008B116A505E016A503E008B115A500E065
:1011400015A521F010002060A069C01EA0610FB19C
:10115000401EA0612046FFF7D6FA4FB1D4E9012125
:1011600038469047206A401C2062C01C206206E07E
:10117000206AFAE7D4E9012115F8010B9047761EA1
:10118000F8D22046FFF7D5FABDE8F0814E414E0077
:101190006E616E00494E4600696E66002DE9F047AB
:1011A000814616468AB0354878440DC88DE80D0052
:1011B00032487844801C03AC0DC884E80D0041F629
:1011C0009B300844372190FBF1F290FBF1F5A5F13B
:1011D000800501FB12041B3C02D56442012000E0A3
:1011E0000020DFF898A080460027FA44AAF1BE0A42
:1011F0000EE0E0070AD03246684607EB47010123BC
:101200000AEB810100F022FB8DE8070064107F1CCF
:10121000002CEED1194F7F44AE3F19E0E80715D0FE
:1012200007EB04100DF1180A90E80E008AE80E0092
:10123000C068F04201D1981908903246012306A9EE
:1012400003A800F003FB03AB83E807006D10641CE8
:10125000002DE3D14FF0010332466946B8F1000F8B
:1012600003A802D000F0DDFA01E000F0EFFAC9E9CE
:101270000001C9F808200AB0BDE8F087402200004C
:1012800010B50446AFF300802046BDE81040FFF7DC
:101290001AB800000048704700AB01204FF0013C35
:1012A00050F8042B51F8043B9A4221D1A2EB0C03D5
:1012B000934313EACC1317D150F8042B51F8043B95
:1012C0009A4215D1A2EB0C03934313EACC130BD132
:1012D00050F8042B51F8043B9A4209D1A2EB0C03BD
:1012E000934313EACC13DBD04FF00000704700BFEC
:1012F000D01A01BAB1FA81F101F0180122FA01F015
:10130000CB40C1F12001DBB2C0B2C01A2CFA01F30C
:10131000D11A914311EAC311E6D17047014918204F
:10132000ABBEFEE72600020070475FEA400C08BF34
:1013300091F0000F4FEA8C234FEAC12243EA51514A
:101340004FEA1C5018BF00F5F0404FEA300018BFBC
:1013500041F000415FEA6C5C00F02980BCF1FF3F86
:1013600008BF40F080407047130C06BF12044FF0D6
:10137000100C4FF0000C130E04BF12020CF1080CFD
:10138000130F04BF12010CF1040C930F04BF920061
:101390000CF1020CD30F04BF52000CF1010C1146EA
:1013A0004FF00002A0F11F00A0EB0C00704711F0FD
:1013B000004F08BF704731F000413FF4D5AF0B0C30
:1013C00006BF09044FF0100C4FF0000C0B0E04BFC9
:1013D00009020CF1080C0B0F04BF09010CF1040CFD
:1013E0008B0F04BF89000CF1020CCB0F04BF490026
:1013F0000CF1010CCCF12003A0EB0C0022FA03F35A
:1014000002FA0CF241EA030100F10100704720F0FA
:101410007F4C80EA030023F07F47ACEB070303F522
:101420007C5300F0004003F1FF032DE980494FEAAF
:10143000154B09B44FEA144325EA0B4E24EA03483E
:101440000FF2042606EB132749083E785FEA3202C2
:1014500003FB0667C7F5000707FB06F64FEA54379C
:101460004FEAD64606F1020607FB066CCCF1005C9B
:101470004FEA1C472CEA074C07FB06F40CFB06F569
:1014800004EB15464FEA961634BF00204FF000409B
:101490004FEAD13706FB07FC4FEA1C4C0CFB0BF75D
:1014A000D21B03FB0CF761EB07010CFB0EF7B0EB53
:1014B000074072EB17420CFB08F734BFA2EB074260
:1014C000B2EB074261EB17414FEA0C444FEA910738
:1014D00006FB07FC4FEA1C4C0CFB0BF7B0EBC740BC
:1014E00072EB573203FB0CF734BFA2EBC742B2EBEF
:1014F000C74261EB57310CFB0EF7B0EBC70072EB44
:1015000057720CFB08F734BFA2EBC702B2EBC7025D
:1015100061EB5771039F4FEA816141EA921104EB3D
:10152000CC044FEAD1374FEA826206FB07FC42EA5D
:1015300090124FEA80604FEA1C4C0CFB0BF7D21B59
:1015400003FB0CF761EB07010CFB0EF7B0EB074058
:1015500072EB17420CFB08F734BFA2EB0742B2EB69
:10156000074261EB17414FEA8C554FEA910704EBB4
:101570009C2406FB07FC4FEA1C4C0CFB0BF7B0EB62
:10158000C74072EB573203FB0CF734BFA2EBC742E4
:10159000B2EBC74261EB57310CFB0EF7B0EBC70063
:1015A00072EB57720CFB08F734BFA2EBC702B2EB29
:1015B000C70261EB577115EB4C254FEA816141EA97
:1015C00092114FEA82624FEAD13742EA901206FB4B
:1015D00007FC44F100044FEA80604FEA1C4C0CFB0E
:1015E0000BF7D21B03FB0CF761EB07010CFB0EF7AB
:1015F000B0EB074072EB17420CFB08F734BFA2EBCD
:101600000742B2EB074261EB174115EB1C154FEA9D
:10161000813141EA92414FEA823242EA90424FEAF6
:1016200080304FEA0C7644F1000448EA03434EEA66
:101630000B484FF0000EB2EB080C71EB030724BF10
:10164000624639464EEB0E0E4FF0000B0018524129
:1016500049414BEB0B0BB2EB080C71EB03077BF131
:10166000000B24BF624639464EEB0E0E4FF0000BC6
:101670000018524149414BEB0B0BB2EB080C71EBDC
:1016800003077BF1000B24BF624639464EEB0E0E7A
:1016900051EA020718BF46F0010616EB0E7655F127
:1016A000000254F1000103D5BDE88901BDE80088BE
:1016B000BDE88901BDE80048B619524141EB01017E
:1016C000A3F10103704780807F7E7D7C7B7A7978EF
:1016D000777676757473727171706F6E6E6D6C6CF7
:1016E0006B6A6A6968686766666564646363626199
:1016F0006160605F5F5E5E5D5D5C5C5B5B5A5A591A
:101700005958585757565655555554545353525285
:101710005251515050504F4F4F4E4E4D4D4D4C4CDD
:101720004C4B4B4B4A4A4A49494948484847474726
:101730004746464645454544444444434343434263
:10174000424242414141002B9C4630D477002BD08D
:101750001CB54FEA370703B44FF010004FF01001EB
:10176000BAF1000F06D0BCF1000FDCBF40F008005A
:1017700040F008014FF000000FBCBDE810400BF135
:10178000010BBBF1010F08BF5FEA170722BF12F17F
:10179000010211F101014FF0004143F1000300F09B
:1017A000004043EA00007047F9D35708D0E746EA03
:1017B000064613F1400F4FEA16461FDD13F1200FC6
:1017C000DFBF16430A46002120335B42BED0C3F17F
:1017D000200746EA064602FA07F74FEA164646EAA7
:1017E0000706C3F1200722FA03F201FA07F721FAEC
:1017F00003F14FF0000342EA0702A7E746EA0206B8
:1018000046EA06464FEA164646EA0106BCBF46EAE5
:101810000646360C4FF000034FF000024FF0000177
:1018200094E72DE9804C9A46934670B491E83800CD
:1018300007C831EA400C48BF34EA430C03D5FFF730
:10184000E6FDFFF780FFF0BCBDE8008C2DE9804C81
:101850009A46934670B491E8380007C810F0804F5C
:1018600008BF13F0804F03D100F005F8FFF76BFFBE
:10187000F0BCBDE8008C20F07F4780EA030023F035
:101880007F4C07EB0C03A3F57C5300F00040A3F161
:10189000FE0392F0000F00F0B38095F0000F00F00F
:1018A00077802DE901494FEA11404FEA144621EAB9
:1018B000004800FB06FC24EA064708FB06F607FB87
:1018C00008F800FB07F718EB06484CEB164C4FEAFC
:1018D000124B18EB07484FEA15464CEB174022EA2B
:1018E0000B4E0BFB06FC25EA06470EFB06F607FB34
:1018F0000EFE0BFB07F71EEB064E4CEB164C4FF0A3
:1019000000061EEB074E4CEB174B18EB0B0840F193
:10191000000018EB0E0B58EB000840F100008F1A86
:101920004FF000013CBFC943661B14BFB5EB040C6C
:1019300000213CBFC943F61B4FEA17444EEA8E0E06
:1019400027EA04454FEA1C4704FB07622CEA074CD0
:1019500005FB07F70CFB05F604FB0CFC16EB074632
:1019600042EB174216EB0C4642EB1C421BEB060601
:1019700058EB0202414146EA9E0601D5BDE80189C5
:10198000B619524141EB0101A3F10103BDE8018900
:101990004FEA14454FEA114724EA054621EA074C6D
:1019A00005FB07F406FB07F70CFB06F105FB0CFC37
:1019B00011EB074144EB17444FEA124711EB0C417E
:1019C00044EB1C4422EA074C05FB07F206FB07F731
:1019D0000CFB06F605FB0CFC16EB074642EB174228
:1019E00016EB0C4642EB1C456A1854F1000148BF47
:1019F0007047B619524141EB0101A3F10103704751
:101A000095F0000F37D04FEA11424FEA144721EA10
:101A1000024624EA074C02FB07F106FB07F70CFB22
:101A200006F402FB0CFC14EB074441EB17414FEAB0
:101A3000154714EB0C4441EB1C4125EA074C02FB13
:101A400007F506FB07F70CFB06F602FB0CFC16EB92
:101A5000074645EB174516EB0C4645EB1C421219A1
:101A600051F1000148BF7047B619524141EB0101E5
:101A7000A3F1010370474FEA14454FEA114724EAE6
:101A8000054621EA074C05FB07F106FB07F70CFBAF
:101A900006F24FF0000605FB0CFC12EB074241EB8F
:101AA000174112EB0C4251EB1C4148BF7047921892
:101AB00041EB0101A3F10103704700001CB50121B6
:101AC000202000F0B5FB4FF48070009001208DF8CD
:101AD000040000208DF8060003208DF80500022088
:101AE0008DF807006946044800F06CF94FF48071E6
:101AF000014800F0D2F91CBD0014024000BFFEE70F
:101B00007047000010B54FF4C8710348FEF7D6FDCA
:101B100000200249088010BD54000020140000205D
:101B20001CB50121202000F083FB01208DF804006A
:101B30008DF807004020009002208DF805006946CE
:101B40003C4800F03FF9002240213A4800F0A9F952
:101B5000FA2000F0BBFF01224021364800F0A1F935
:101B60004FF4FA7000F0B2FFFFF7CCFF32A1344817
:101B700000F022FF03E04FF4FA7000F0A7FF31A15C
:101B800031A000F0DBF80028F5D131A12C4800F09D
:101B900013FF2EA130A000F0D1F84FF4FA7000F03E
:101BA00095FF2AA12FA000F0C9F84FF4FA7000F0B9
:101BB0008DFF30A1224800F0FFFE03E04FF4FA70E1
:101BC00000F084FF1FA12EA000F0B8F80028F5D186
:101BD0002FA11B4800F0F0FE03E04FF4FA7000F074
:101BE00075FF18A12DA000F0A9F80028F5D12FA1AC
:101BF000134800F0E1FE03E04FF4FA7000F066FFD6
:101C00002DA12FA000F09AF80028F5D134A10C489E
:101C100000F0D2FE03E04FF4FA7000F057FF34A159
:101C200035A000F08BF80028F5D13EA1044800F063
:101C3000C3FE1CBD00140240302E2041540D0A008A
:101C4000001001404F4B000041540D0A00000000FD
:101C5000312E5253540D0A0041542B5253540D0A45
:101C60000000000041542B434950434C4F53455C06
:101C7000720A0000322E2043574D4F44450D0A0092
:101C800041542B43574D4F44453D310D0A00000050
:101C9000332E204349504D55580D0A0041542B43D3
:101CA00049504D55583D300D0A000000342E204358
:101CB000574A41500D0A0000474F54204950000038
:101CC00041542B43574A41503D224368656E5F2281
:101CD0002C223030303031313131220D0A000000F9
:101CE000352E2043495053544152540D0A000000F0
:101CF000434F4E4E4543540041542B434950535497
:101D00004152543D22544350222C226170692E735B
:101D1000656E6976657273652E636F6D222C38303F
:101D20000D0A0000362E20455350383236362049F1
:101D30006E6974204F4B0D0A000000002DE9F04140
:101D400004460D46C8262046FEF710FC87B23A46E8
:101D500021460D4800F054FE0FE000F019F848B994
:101D600029460A48FEF7F0FB20B1FFF7CBFE002022
:101D7000BDE8F0810A2000F0A9FE301EA6F10101A5
:101D8000CEB2EAD10120F3E7004800405400002021
:101D90000A48008808B901207047084800880849A7
:101DA0000988884203D1002004490880F4E70348E9
:101DB0000088034908800120EEE70000140000209D
:101DC00016000020F0B50A4600210023002400BFC1
:101DD0003DE0012505FA01F3156805EA03049C427C
:101DE00034D105684F000326BE40B5430560157920
:101DF0004E00B5400668354305601579012D02D0C7
:101E00001579022D16D185684F000326BE40B543D3
:101E1000856055794E00B5408668354385604568D4
:101E200001268E40B5434560456896798E40B6B22E
:101E300035434560C5684F000326BE40B543C560C5
:101E4000D5794E00B540C6683543C560491C102998
:101E5000BFD3F0BDF0B5002300244D07ED0E02FA0C
:101E600005F3CE1000F1200555F826504E07F70E69
:101E70000F26BE40B543CF1000F1200646F827508C
:101E8000CE1000F1200555F8265045EA0304CE1087
:101E900000F1200545F82640F0BD418370470183DD
:101EA00070470AB1018300E04183704710B50CA16F
:101EB0000CA0FFF743FF0AA10EA0FFF73FFF114957
:101EC000114800F079FD00BFFFF762FF0028FBD149
:101ED000642000F0FBFD0D4800F07CF810BD000010
:101EE0004F4B000041542B4349504D4F44453D3129
:101EF0000D0A000041542B43495053454E440D0AEE
:101F00000000000004340008004800405400002095
:101F100000BFFEE71CB50121202000F089F94FF435
:101F2000C060009001208DF8040000208DF80600AC
:101F300003208DF8050001208DF80700694604484C
:101F4000FFF740FF4FF4C0610148FFF7A8FF1CBD39
:101F50000014024000BFFEE77047000070B500218A
:101F600000230F22C4781CB3174C246804F4E064E7
:101F7000C4F5E064C4F30721C1F10404E3B20A41EB
:101F800044789C40E1B28478144021430C07210E30
:101F90000E4C05786155047804F01F050124AC400F
:101FA00005786D11AD0005F1E025C5F8004109E0A7
:101FB000047804F01F050124AC40054D0678761125
:101FC00045F8264070BD00000CED00E000E400E0A4
:101FD00080E100E0F0B5ADF6AC1D06464FF4C872E6
:101FE000674902A8FEF738FB314602A8FEF728FB36
:101FF00002AA64A1654800F0DFFC0DF6981000F01D
:10200000C3FD02A8FEF7B2FA0746802066AB3A4647
:1020100002A900900DF6981000F0BCFD0546002DB9
:1020200008DA2A465AA1594800F0C6FC01200DF6EC
:10203000AC1DF0BD012D03DB9DF89801012805D0F2
:102040005AA1524800F0B8FC0120F0E7012491E0C9
:1020500066A800EB04115AA202A800F0C4FFE8B978
:1020600066AB611C03EB011166AF8B68611C07EB6B
:10207000011149685A1A66AB611C03EB01114968EA
:1020800002ABC8180DF6A41100F0F2FC4E484FA1A7
:1020900002683E4800F090FC641C6AE066A800EB11
:1020A00004114DA202A800F09EFFD8B966AB611CD6
:1020B00003EB011166AF8B68611C07EB01114968E6
:1020C0005A1A66AB611C03EB0111496802ABC818D0
:1020D000434900F0CDFC424A42A12C4800F06CFC80
:1020E000641C46E066A800EB041141A202A800F0BF
:1020F0007AFFD8B966AB611C03EB011166AF8B6840
:10210000611C07EB011149685A1A66AB611C03EBAD
:102110000111496802ABC818374900F0A9FC364ADA
:1021200036A11A4800F048FC641C22E066A800EBC7
:10213000041135A202A800F056FFD0B966AB611CAD
:1021400003EB011166AF8B68611C07EB0111496855
:102150005A1A66AB611C03EB0111496802ABC8183F
:102160002C4900F085FC2B4A2BA1084800F024FCE8
:10217000641C641CAC42FFF66BAF002057E7000004
:102180007831000825730D0A00000000001001409E
:102190004661696C656420746F207061727365209C
:1021A0004A534F4E3A2025640A0000004F626A6588
:1021B00063742065787065637465640A00000000CC
:1021C0006E616D6500000000180000202D206E611A
:1021D0006D653A2025730A0074657874000000006C
:1021E0001C0000202D20746578743A2025730A00A5
:1021F000636F646500000000220000202D20636FE3
:1022000064653A2025730A0074656D7065726174A7
:1022100075726500280000202D2074656D70657250
:1022200061747572653A2025730A000070470000DA
:1022300029B1064A12680243044B1A6004E0034ABB
:1022400012688243014B1A60704700003038024028
:1022500029B1064A12680243044B1A6004E0034A9B
:1022600012688243014B1A607047000040380240F8
:1022700029B1064A12680243044B1A6004E0034A7B
:1022800012688243014B1A607047000020380240F8
:1022900029B1064A12680243044B1A6004E0034A5B
:1022A00012688243014B1A607047000044380240B4
:1022B00029B1064A12680243044B1A6004E0034A3B
:1022C00012688243014B1A607047000024380240B4
:1022D000F0B5002100220024022500260223324FFF
:1022E0003F6807F00C0121B1042905D0082937D136
:1022F00005E02E4F076036E02D4F076033E02A4F90
:102300003F1F3F68C7F38056274F3F1F3F6807F0C6
:102310003F036EB1264FB7FBF3F7DFF88CC0ACF18B
:10232000040CDCF800C0CCF3881C07FB0CF40CE0B8
:102330001E4FB7FBF3F7DFF870C0ACF1040CDCF80C
:1023400000C0CCF3881C07FB0CF4174F3F1F3F68FD
:10235000C7F301477F1C7D00B4FBF5F7076002E07F
:10236000124F076000BF00BF0F4F3F6807F0F0013A
:102370000909104F7A5C0768D74047600A4F3F68E9
:1023800007F4E051890A0B4F7A5C4768D7408760B1
:10239000054F3F6807F46041490B064F7A5C476878
:1023A000D740C760F0BD0000083802400024F400A8
:1023B00000127A0004000020704700000CB50020D5
:1023C000019000903448006840F480303249086041
:1023D00000BF3148006800F4003000900198401CB4
:1023E0000190009818B90198B0F5A04FF1D12A4892
:1023F000006800F4003010B10120009001E00020DE
:1024000000900098012846D123484030006840F0F1
:1024100080502149403108602048006840F4404025
:102420001E4908601C48083000681B4908310860D4
:102430000846006840F4004008600846006840F420
:10244000A05008601648091F0860081F006840F087
:102450008070091F086000BF0F48006800F000701E
:102460000028F9D040F205700E4908600A4808308B
:10247000006820F003000849083108600846006839
:1024800040F00200086000BF03480830006800F018
:102490000C000828F8D10CBD003802400070004044
:1024A00008544007003C0240042808D14FF0E021C6
:1024B000096941F004014FF0E022116107E04FF09B
:1024C000E021096921F004014FF0E0221161704719
:1024D0007047000010B51548006840F470001349BB
:1024E00008601348006840F00100114908600020AE
:1024F0000F49083108600E4800680E4908400C4931
:1025000008600D48091D0860081F006820F480203D
:10251000091F0860002006490C310860FFF74EFFD4
:102520004FF0006001498039086010BD88ED00E07F
:1025300000380240FFFFF6FE1030002410B540F2D4
:102540002551044800F0C9F818B12021014800F0D5
:1025500029F810BD0010014010B540F225510E4879
:1025600000F0BBF8B8B10D480088B0F5C87F02D3C1
:1025700000200A4908800848001D0088C1B20748A9
:1025800002880088401C054B188005488154202192
:10259000014800F007F810BD00480040140000207A
:1025A0005400002001F40072B2F5007F00D100BF9A
:1025B000CA430280704721B1828942F4005282816D
:1025C00004E082894DF6FF731A4082817047000053
:1025D00010B504463248844208D101211020FFF78B
:1025E00067FE00211020FFF763FE57E02D4884426C
:1025F00009D101214804FFF73BFE00214FF40030D0
:10260000FFF736FE4AE02848844209D101218804B8
:10261000FFF72EFE00214FF48020FFF729FE3DE05A
:102620002248844209D10121C804FFF721FE00217C
:102630004FF40020FFF71CFE30E01D48844209D112
:1026400001210805FFF714FE00214FF48010FFF769
:102650000FFE23E01748844208D101212020FFF714
:1026600027FE00212020FFF723FE17E012488442B6
:1026700009D101218807FFF7FBFD00214FF08040C1
:10268000FFF7F6FD0AE00D48844207D1012140051D
:10269000FFF7EEFD00216005FFF7EAFD10BD000029
:1026A000001001400044004000480040004C004041
:1026B000005000400014014000780040007C0040C1
:1026C00002460020B1F5007F00D100BF13880B4007
:1026D0000BB1012000E00020704770B502460024D5
:1026E00000230025002040F66A16B14200D100BF49
:1026F000C1F3421501F01F03012606FA03F3012D71
:1027000002D19689334006E0022D02D1168A334069
:1027100001E0968A33400C12012606FA04F416886A
:10272000344013B10CB1012000E0002070BDF0B5C1
:102730000346002400260025002040F66A17B9420F
:1027400000D100BF1846C1F3421401F01F06012753
:1027500007FA06F5012C01D10C3004E0022C01D15E
:10276000103000E014301AB107682F43076002E010
:102770000768AF430760F0BD2DE9FF4705460E46E9
:102780000024A14600BFA046B08900B100BF2C8A3A
:1027900024F44054F08804432C82AC8941F20C604C
:1027A0008443B08831890843718908430443AC816C
:1027B000AC8A24F44074B0890443AC826846FFF7C5
:1027C00087FD2048854202D01F48854202D1DDF8AE
:1027D0000C9001E0DDF80890A88900F4004040B1B9
:1027E00009EBC90000EB091031684900B0FBF1F7B3
:1027F00007E009EBC90000EB091031688900B0FB64
:10280000F1F76420B7FBF0F004012009642101FB1B
:102810001078A88900F4004040B1322000EBC800D5
:10282000B0FBF1F000F00700044308E0322000EBB9
:1028300008106421B0FBF1F000F00F0004432C817C
:10284000BDE8FF870010014000140140C1F30802F9
:102850008280704700BFFEE710B588B004460121B2
:102860000846FFF7E5FC01211020FFF711FD0722C4
:1028700009212248FFF7EEFA07220A211F48FFF735
:10288000E9FA4FF4C060069002208DF81C008DF824
:102890001D0000208DF81E0001208DF81F0006A9E4
:1028A0001648FFF78FFA02940020ADF80C00ADF83F
:1028B0000E00ADF81000ADF814000C20ADF81200B9
:1028C00002A90F48FFF758FF01210D48FFF773FEDB
:1028D000012240F225510A48FFF729FF25208DF8F3
:1028E000040003208DF805008DF8060001208DF806
:1028F000070001A8FFF732FB08B010BD000002403E
:102900000010014010B588B0044601210220FFF7F5
:102910008FFC01218804FFF79BFC2548FFF758FE38
:1029200007220B212348FFF795FA07220A212148A5
:10293000FFF790FA4FF44060059002208DF81800E0
:102940008DF8190000208DF81A0001208DF81B0069
:1029500005A91848FFF736FA01940020ADF80800E1
:10296000ADF80A00ADF80C00ADF810000C20ADF881
:102970000E0001A90E48FFF7FFFE01210C48FFF7EA
:102980001AFE012240F225510948FFF7D0FE272008
:102990008DF81C0002208DF81D0003208DF81E000C
:1029A00001208DF81F0007A8FFF7D8FA08B010BD66
:1029B00000480040000402400FB430B5CBB00546DB
:1029C00001AC50A800904FF4947101A8009B4F9A5D
:1029D000FDF7A0FC002000900BE014F8011B284636
:1029E000FFF734FF00BF40212846FFF769FE0028AB
:1029F000F9D020780028F0D14BB030BC5DF814FB42
:102A00002DE9F04107460C46154600260DE014F866
:102A1000011B3846FFF71AFF00BF40213846FFF779
:102A20004FFE0028F9D0701C86B2AE42EFDBBDE845
:102A3000F08103B401984100009850EAC12018BF0A
:102A400004204A0D18BF40F0010040F2FF72B2EBC3
:102A5000515F08BF40F00200012808BF052002B006
:102A6000704730380A2801D2012070470020704793
:102A700010B500B101B910BD03E010F8013B01F839
:102A8000013B131EA2F10102F7D100BFF3E70000E2
:102A900010B504466FF00400FFF706FDE11704EBE4
:102AA0005171C1F3C701074A11701046007800EB5D
:102AB0004001C1EBC0104FF6FF7101EAC0000249AE
:102AC000088010BD000000200200002070B5044600
:102AD0004FF4077094FBF0F0C6B24FF4077094FB0C
:102AE000F0F100FB114085B205E04FF4077000F0F3
:102AF00009F8701EC6B2002EF7D115B1284600F0B5
:102B000001F870BD0146114A12884A434FF0E02394
:102B10005A6100229A611A46126942F001021A6152
:102B200000BF4FF0E022106900F001021AB100F47A
:102B30008032002AF5D04FF0E022126922F0010223
:102B40004FF0E0231A6100229A61704702000020D2
:102B500030B503460C465868904201D3002030BD82
:102B60005D68681C04EB051158604FF0FF30886009
:102B700048600020C8600846F1E710B50170426067
:102B800083600024C46010BD002101604160491EC3
:102B9000816070472DE9FF4F83B0044689461D468A
:102BA000DDF840A0D4F8048001E1206819F80000A5
:102BB000029002982C286ED00CDC0D286CD004DC1E
:102BC00009286AD00A2869D19BE0202867D02228EA
:102BD000F9D176E05D2833D004DC3A2870D05B2848
:102BE000F1D105E07B2802D07D28ECD127E000BFA1
:102BF00008F1010805B9D6E0524629462046FFF7FC
:102C0000A7FF074627B94FF0FF3007B0BDE8F08FA8
:102C1000A068401C30B1A16805EB0110C168491CD7
:102C2000C16000BF02987B2801D1012000E0022092
:102C30003870206878606068401EA060B3E000BF14
:102C400005B9B0E002987D2801D1012000E0022002
:102C500001906068461E16E005EB06177868401C78
:102C600080B1B868401C68B939780198814202D0B7
:102C70006FF00100C9E74FF0FF30A0602068401CF2
:102C8000B86002E0761E002EE6DA00BF701C38B98C
:102C90006FF00100B9E73AE032E030E065E031E0A2
:102CA0000AE005EB06177868401C20B1B868401CA4
:102CB00008B9A66002E0761E002EF2DA00BF72E0CC
:102CC00021E02B46CDF800A049462046059A00F0A9
:102CD000ECF88346BBF1000F01DA584695E708F19E
:102CE0000108A068401C48B145B1A06805EB001080
:102CF000C068401CA16805EB0111C86053E000BF2B
:102D000000BF00BF4FE06068401EA0604BE05DB3B5
:102D1000A068401C40B3A06805EB001000780228B2
:102D200022D0A06805EB0010007801281CD0606854
:102D3000461E16E005EB06100078022804D005EBCD
:102D40000610007801280BD105EB06104068401CE6
:102D500030B105EB06108068401C08B9A66002E09F
:102D6000761E002EE6DA00BF1DE02B46CDF800A04F
:102D700049462046059A00F03AF88346BBF1000F19
:102D800001DA584641E708F10108A068401C48B143
:102D900045B1A06805EB0010C068401CA16805EBB8
:102DA0000111C86000BF00BF2068401C206021687E
:102DB0000598814205D2206819F8000000287FF4A8
:102DC000F4AE95B16068461E0DE005EB0610406854
:102DD000401C38B105EB06108068401C10B96FF03C
:102DE000020012E7761E002EEFDA40460DE72DE9CD
:102DF000F04704460D4691461E46DDF820A0D4F863
:102E000000802DE02068285C2C2815D008DC0928DB
:102E10000ED00A280ED00D280BD020280FD10AE0A2
:102E20003A2804D05D2808D07D2808D106E000BFEC
:102E300000BF00BF00BF00BF00BF00BF18E0206898
:102E4000285C202803DB2068285C7F2805DBC4F889
:102E500000806FF00100BDE8F0872068401C206012
:102E60002068484503D22068285C0028CAD100BFEA
:102E700026B92068401E20600020ECE7524631460B
:102E80002046FFF765FE074627B9C4F800804FF0DB
:102E9000FF30E0E74246042138462368FFF76DFE25
:102EA0002068401E20600020D5E72DE9F05F044631
:102EB0000D4617469846DDF828B026682068401C65
:102EC000206084E0206815F800A0BAF1220F1AD122
:102ED000B8F1000F02D10020BDE8F09F5A464146EC
:102EE0002046FFF735FE8146B9F1000F03D1266079
:102EF0004FF0FF30F0E7721C032148462368FFF7CC
:102F00003CFE0020E8E7BAF15C0F5DD12068401C70
:102F1000B84259D22068401C20602068285C66288E
:102F200016D008DC22280FD02F280ED05C280DD018
:102F3000622843D10BE06E280CD0722809D0742887
:102F400009D075283AD107E000BF00BF00BF00BF1D
:102F500000BF00BF00BF35E02068401C206000219A
:102F60001FE02068285C302803DB2068285C3928B3
:102F700013DD2068285C412803DB2068285C462894
:102F80000BDD2068285C612803DB2068285C66284C
:102F900003DD26606FF001009EE72068401C206082
:102FA000491C042906DA2068B84203D22068285C4C
:102FB0000028D6D12068401E206003E026606FF014
:102FC000010089E700BF00BF2068401C2060206826
:102FD000B84204D22068285C00287FF473AF2660D2
:102FE0006FF0020078E770B506460C46154620786B
:102FF000032811D12846FDF7B9FAD4E90121891A2D
:10300000884209D1D4E90131CA1A98192946FDF735
:10301000CCFA08B9002070BD4FF0FF30FBE700008C
:10302000A820FFF735FDFEF775FFFEF747FD4FF4CB
:10303000E130FFF711FC4FF4E130FFF763FC08A12A
:103040000C48FFF7B9FCFEF76BFD002000F014F808
:10305000012000F011F8FEF729FF00BFFEE7000095
:1030600020486172647761726520696E6974204FCF
:103070004B0D0A000010014010B504460C4951F8F0
:1030800024104A000B4951F82400002100F036F8C2
:10309000094951F8242007490C3951F8240000212E
:1030A00000F02CF8012103480C30015510BD000040
:1030B00008330008440000202033000810B5014602
:1030C0000023002207E00B4850F8210030F81200DE
:1030D00000B15B1C521C084850F821009042F2D805
:1030E00064205843044C54F82140B0FBF4F0C0B2C3
:1030F00010BD0000440000200833000830B503462E
:1031000001E003F8011B141EA2F10102F9D130BD48
:1031100010B500290AD00878002807D0054878445F
:10312000FEF7BCF8002801D0002010BD024878440A
:1031300010BD0000760300006E03000010B50029EA
:103140000AD00878002807D005487844FEF7A6F88A
:10315000002801D0002010BD0248784410BD0000B6
:10316000660300005E0300004FF04070E1EE100ABD
:103170007047FDF720BE00007B000000000000004B
:10318000000000000000000000000000000000003F
:10319000000000000000000000000000000000002F
:1031A000000000000000000000000000000000001F
:1031B000000000000000000000000000000000000F
:1031C00000000000000000000000000000000000FF
:1031D00000000000000000000000000000000000EF
:1031E00000000000000000000000000000000000DF
:1031F00000000000000000000000000000000000CF
:1032000000000000000000000000000000000000BE
:1032100000000000000000000000000000000000AE
:10322000000000000000000000000000000000009E
:10323000000000000000000000000000000000008E
:10324000000000000000000000000000000000007E
:10325000000000000000000000000000000000006E
:10326000000000000000000000000000000000005E
:10327000000000000000000000000000000000004E
:10328000000000000000000000000000000000003E
:10329000000000000000000000000000000000002E
:1032A000000000000000000000000000000000001E
:1032B000000000000000000000000000000000000E
:1032C00000000000000000000000000000000000FE
:1032D00000000000000000000000000000000000EE
:1032E00000000000000000000000000000000000DE
:1032F00000000000000000000000000000000000CE
:103300000000000000000000800C000000780000B9
:1033100080070000200000002000000020000000C6
:103320000090010000000F0000F000000400000801
:10333000000000000000000200010000100000007A
:1033400000000000000000003031323334353637E1
:1033500038394142434445464030580030313233D9
:1033600034353637383961626364656640307800D9
:1033700002400000000000A0000000000540000026
:10338000000000C8000000000C4000000000409C4D
:1033900000000000194000000020BCBE000000003A
:1033A00034400000BFC91B8E00000004B54000007F
:1033B000504BCFD06607E2CF010000006C41000007
:1033C0003E8251AADFEEA73401000000D94200007E
:1033D000DCB5A0E23A301F97FFFFFFFFB4450000C5
:1033E000FD25A0C8E9A3C14FFFFFFFFFFF3F00007D
:1033F0000000008000000000FF3F0000000000808F
:10340000000000004745542068747470733A2F2FF1
:103410006170692E73656E6976657273652E636F70
:103420006D2F76332F776561746865722F6E6F77B5
:103430002E6A736F6E3F6B65793D536D44706E7A83
:10344000517058683636634C396D6A266C6F63610B
:1034500074696F6E3D6265696A696E67266C616E3C
:1034600067756167653D656E26756E69743D630AB3
:103470000A000000C03500080000002054000000D1
:10348000C401000814360008540000200CB10100EB
:10349000E00100081C00000043000000F8FFFFFFEF
:1034A0000C0000000E0000000F0000002E000000C5
:1034B0001001000043000000F8FFFFFF0040404003
:1034C00040404040404041414141414040404040F7
:1034D00040404040404040404040404040050202A3
:1034E0000202020202020202020202020220202062
:1034F00020202020202020020202020202029090BE
:1035000090909090101010101010101010101010BB
:10351000101010101010101002020202020288880F
:10352000888888880808080808080808080808081B
:103530000808080808080808020202024000000003
:10354000000000000000000000000000000000007B
:10355000000000000000000000000000000000006B
:10356000000000000000000000000000000000005B
:10357000000000000000000000000000000000004B
:10358000000000000000000000000000000000003B
:10359000000000000000000000000000000000002B
:1035A000000000000000000000000000000000001B
:1035B000000000000000000000000000000000000B
:1035C00000000000000000000102030401020304E7
:1035D00006070809000000000000000000000000CD
:1035E00000000000000000000000000000000000DB
:1035F00079300008BD30000800020020000000689B
:10360000000000100092012000000F6800F0001080
:0436100000000000B6
:040000050800018965
:00000001FF
